S01400004954495F456D6265646465642E73726563C1
S11300000C942A000C943C000C943C000C943C008E
S11300100C943C000C943C000C943C000C943C006C
S11300200C943C000C943C000C943C000C943C005C
S11300300C943C000C943C000C943C000C943C004C
S11300400C9493000C943C000C943C000C943C00E5
S11300500C943C0011241FBECFE5D8E0DEBFCDBF19
S113006020E0A0E6B0E001C01D92A736B207E1F798
S11300700E9444000C94EE000C9400006091650012
S113008082E00E94D30008950E94E3000E94510080
S113009078944EE350E065E670E081E00E946A00E7
S11300A0F8CF87B18F7B87B987B18F7787B987B14D
S11300B08F7D87B986B1816086B986B1826086B941
S11300C086B1846086B986B1806886B986B1877F37
S11300D086B908959091600091111FC06115710552
S11300E0F1F041155105E9F091E0909360007093AF
S11300F0640060936300509362004093610097B181
S1130100907E97B997B1892B87B986B1806486B9F7
S113011086B1886086B981E0089583E0089582E01D
S1130120089582E008951F920F920FB60F92112442
S11301302F933F934F935F936F937F938F939F93EB
S1130140AF93BF93EF93FF93E0916300F09164004A
S113015084B1811106C085B1882331F081E090E03B
S113016005C081E090E002C080E090E0918380834C
S113017010926000E0916100F0916200099586B1EF
S1130180877F86B9FF91EF91BF91AF919F918F9136
S11301907F916F915F914F913F912F910F900FBE7F
S11301A00F901F901895813041F028F0823039F07B
S11301B0833039F008956BBB089568BB089565BB1F
S11301C0089562BB08951ABA81E087BB8FEF84BBA0
S11301D011BA1BBA18BA15BA12BA0895F894FFCF17
S9030000FC
